:100000000C9434000C9446000C9446000C9446006A
:100010000C9446000C9446000C9446000C94460048
:100020000C9446000C9446000C9446000C94A200DC
:100030000C9446000C9446000C9446000C94460028
:100040000C9446000C9446000C9446000C94460018
:100050000C9446000C9446000C9446000C94460008
:100060000C9446000C94460011241FBECFEFD8E03C
:10007000DEBFCDBF21E0A0E0B1E001C01D92A13004
:10008000B207E1F70E94C6000C9400010C94000036
:100090009B01AC018AE0220F331F441F551F8A9534
:1000A000D1F760E074E284EF90E00E94DE0021501E
:1000B00031093093870020938600089520918600AF
:1000C00030918700482F429FC001439F900D11241B
:1000D00064E670E00E94CA00709389006093880013
:1000E0000895CF93C0910001C53640F48C2F0E9433
:1000F0005E00CF5FC0930001CF9108958FEF8C0F0A
:1001000080930001CF910C945E00E0E8F0E08081E4
:1001100080688083808182608083E1E8F0E0808174
:1001200088618083808185608083EFE6F0E0808154
:10013000826080838BE990E09093870080938600B3
:10014000789408951F920F920FB60F9211242F9357
:100150003F934F935F936F937F938F939F93AF934F
:10016000BF93EF93FF930E947100FF91EF91BF91B6
:10017000AF919F918F917F916F915F914F913F913F
:100180002F910F900FBE0F901F901895219A0E94EB
:100190008500FFCFAA1BBB1B51E107C0AA1FBB1FD5
:1001A000A617B70710F0A61BB70B881F991F5A9503
:1001B000A9F780959095BC01CD010895A1E21A2E72
:1001C000AA1BBB1BFD010DC0AA1FBB1FEE1FFF1FFB
:1001D000A217B307E407F50720F0A21BB30BE40B4B
:1001E000F50B661F771F881F991F1A9469F7609592
:1001F0007095809590959B01AC01BD01CF0108954C
:04020000F894FFCFA0
:00000001FF
