:100000000C9434000C9449000C9449000C94490061
:100010000C9449000C9449000C9449000C9449003C
:100020000C9449000C9449000C9449000C9449002C
:100030000C9449000C948D000C9449000C944900D8
:100040000C9449000C9449000C9449000C9449000C
:100050000C9449000C9449000C9449000C944900FC
:100060000C9449000C94490011241FBECFEFD8E036
:10007000DEBFCDBF11E0A0E0B1E0E6E5F2E002C0F6
:1000800005900D92A230B107D9F70E94C9000C94D7
:1000900029010C9400002091860030918700AC016A
:1000A000429FC001439F900D529F900D112464E622
:1000B00070E00E94D40070938900609388000895D6
:1000C00044E69C01429FC001439F900D11249C0176
:1000D000990F440B550B60E074E284EF90E00E94AE
:1000E000E80030938700209386000895E0E8F0E070
:1000F000808182688083E1E8F0E08081896180838B
:10010000EFE6F0E080818160808386B3836086BB08
:10011000109285001092840008951F920F920FB6DE
:100120000F9211242F933F934F935F936F937F937D
:100130008F939F93AF93BF93CF93DF93EF93FF93EF
:10014000C0910001D0910101CE010E944B00C33645
:10015000D1053CF081E090E0909301018093000193
:1001600005C02196D0930101C0930001FF91EF914A
:10017000DF91CF91BF91AF919F918F917F916F91BF
:100180005F914F913F912F910F900FBE0F901F9055
:100190001895219A0E94760080E496E0909387005B
:1001A000809386007894FFCFAA1BBB1B51E107C048
:1001B000AA1FBB1FA617B70710F0A61BB70B881FF7
:1001C000991F5A95A9F780959095BC01CD01089586
:1001D000052E97FB1EF400940E94FF0057FD07D0E8
:1001E0000E94070107FC03D04EF40C94FF005095C9
:1001F0004095309521953F4F4F4F5F4F0895909513
:100200008095709561957F4F8F4F9F4F0895A1E224
:100210001A2EAA1BBB1BFD010DC0AA1FBB1FEE1F80
:10022000FF1FA217B307E407F50720F0A21BB30BCB
:10023000E40BF50B661F771F881F991F1A9469F747
:1002400060957095809590959B01AC01BD01CF01A3
:060250000895F894FFCFB1
:020256000100A5
:00000001FF
