:100000000C9434000C9446000C9446000C9446006A
:100010000C9446000C9446000C9446000C94460048
:100020000C9446000C9446000C9446000C94460038
:100030000C9446000C9446000C9452000C9446001C
:100040000C9446000C9446000C9448000C94460016
:100050000C9446000C9446000C9446000C94460008
:100060000C9446000C94460011241FBECFEFD8E03C
:10007000DEBFCDBF21E0A0E0B1E001C01D92A23003
:10008000B207E1F70E94AD000C94CF000C94000081
:100090001F920F920FB60F9211240F900FBE0F9068
:1000A0001F9018951F920F920FB60F9211242F9345
:1000B0008F939F93809100019091010101969093FD
:1000C000010180930001803D974048F4A99A9F91D7
:1000D0008F912F910F900FBE0F901F90189595B193
:1000E00080E2892785B9109201011092000184E114
:1000F00090E000000197E9F7E9CF815028F0000077
:10010000000000000000F9CF0895EF92FF920F93D6
:100110001F93CF93DF938C015E98CFE0D0E0EE2465
:10012000E394F12CC7010C2E02C0880F991F0A948A
:10013000E2F780239123892B11F05E9A01C05E982B
:1001400083E00E947D00219768F75E9ADF91CF914E
:100150001F910F91FF90EF900895259A85B115B8E2
:10016000569A84B5826084BD85B5846085BD8091D2
:100170006E00826080936E00A99A8AE087BD16BCEB
:100180001092C0001092C1001092C200789485E5D0
:100190009AEA0E94850084E10E947D00F8CFF894DD
:0201A000FFCF8F
:00000001FF
